:100000000C945D000C9485000C9485000C94850084
:100010000C9485000C9485000C9485000C9485004C
:100020000C9485000C9485000C9485000C9485003C
:100030000C9485000C9485000C9485000C9485002C
:100040000C94F2020C9485000C94B8020C947D027E
:100050000C9485000C9485000C9485000C9485000C
:100060000C9485000C9485000000000024002700FB
:100070002A0000000000250028002B0004040404CE
:100080000404040402020202020203030303030342
:10009000010204081020408001020408102001021F
:1000A00004081020000000070002010000030406FD
:1000B00000000000000000003C0311241FBECFEF31
:1000C000D8E0DEBFCDBF21E0A2E1B1E001C01D92CA
:1000D000A63FB207E1F711E0A0E0B1E0E2E4FCE006
:1000E00002C005900D92A231B107D9F710E0CDE51D
:1000F000D0E004C02197FE010E941906CC35D1073B
:10010000C9F70E9477030C94C0050C940000089571
:100110000F931F93CF93DF93FC01A685B7858D01C5
:10012000005C1F4FE8018881998101968F739927A0
:10013000AD014E5B5F4FEA012881398128173907ED
:10014000D1F3E80128813981A20FB31F6C93A685F2
:10015000B785A05CBF4F11969C938E93A689B789F3
:100160002C9181E090E0078C02C0880F991F0A94BF
:10017000E2F7822B8C9381E081A30488F589E02D3E
:1001800080818064808381E090E0DF91CF911F9136
:100190000F910895FC0181A1882329F0A489B589D4
:1001A0008C9186FFFBCF11A20895FC01A485B58533
:1001B000FD01E05CFF4F2081318132968081918189
:1001C0002817390779F080819181A80FB91F8C9188
:1001D000208131812F5F3F4F2F733327318320835D
:1001E00090E008958FEF9FEF0895DC011C96ED914C
:1001F000FC911D97DF01A05CBF4F2D913C911197A1
:1002000012968D919C9111972817390739F08D918D
:100210009C91E80FF91F808190E008958FEF9FEF88
:100220000895FC0124853585F901E05CFF4F80814C
:100230009181329620813181821B930B8F73992794
:10024000089582ED91E00C941101CF92DF92EF922C
:10025000FF920F931F93CF93DF936C01EB017B0110
:10026000E40EF51E00E010E0CE15DF0561F06991A7
:10027000D601ED91FC910190F081E02DC601099528
:10028000080F191FF1CFC801DF91CF911F910F9176
:10029000FF90EF90DF90CF90089590E0FC01EC5537
:1002A000FF4F2491FC01E057FF4F3491FC01E458CB
:1002B000FF4FE491EE2309F43CC0222339F12330AF
:1002C00091F038F42130A9F0223001F584B58F7D0A
:1002D00012C0263091F02730A1F02430B9F480917B
:1002E00080008F7D03C0809180008F778093800095
:1002F0000DC084B58F7784BD09C08091B0008F7721
:1003000003C08091B0008F7D8093B000F0E0EE0FCD
:10031000FF1FEE58FF4FA591B4919FB7F89461115C
:1003200004C08C913095382302C0EC913E2B3C9355
:100330009FBF0895CF93DF9390E0FC01E057FF4FFC
:100340002491FC01E458FF4F8491882361F190E0EF
:10035000880F991FFC01E859FF4FC591D491FC010A
:10036000EE58FF4FA591B491611109C09FB7F89461
:100370008881209582238883EC912E230BC06230E4
:1003800061F49FB7F8948881322F30958323888356
:10039000EC912E2B2C939FBF06C08FB7F894E88169
:1003A0002E2B28838FBFDF91CF9108953FB7F8940C
:1003B0008091130190911401A0911501B091160143
:1003C00026B5A89B05C02F3F19F00196A11DB11DB0
:1003D0003FBFBA2FA92F982F8827820F911DA11DEB
:1003E000B11DBC01CD0142E0660F771F881F991F28
:1003F0004A95D1F70895CF92DF92EF92FF92CF9373
:10040000DF936B017C010E94D601EB01C114D10482
:10041000E104F10479F00E94D6016C1B7D0B683E6B
:100420007340A0F381E0C81AD108E108F108C8516F
:10043000DC4FECCFDF91CF91FF90EF90DF90CF902A
:1004400008958F929F92AF92BF92EF92FF920F9377
:100450001F93CF93DF93CDB7DEB7A1970FB6F89474
:10046000DEBF0FBECDBF162F042F19A2423008F4F5
:100470000AE07E0121E2E20EF11C802E912CA12CDB
:10048000B12C612FA50194010E94F705029F10195C
:10049000112481E0E81AF1081A3014F4105D01C04B
:1004A000195CF7011083122F732FCA01232B242B01
:1004B000252B39F7E114F10469F001900020E9F7E8
:1004C0003197AF014E195F09B70182ED91E00E94AB
:1004D000250102C080E090E0A1960FB6F894DEBF3F
:1004E0000FBECDBFDF91CF911F910F91FF90EF9085
:1004F000BF90AF909F908F9008951F920F920FB66C
:100500000F9211242F933F938F939F93EF93FF9319
:1005100020918A0130918B0180918C0190918D0105
:100520002817390731F48091C1008F7D8093C10075
:1005300014C0E0918C01F0918D01E65BFE4F2081AB
:1005400080918C0190918D0101968F7399279093E2
:100550008D0180938C012093C600FF91EF919F91B4
:100560008F913F912F910F900FBE0F901F90189574
:100570001F920F920FB60F9211242F934F935F93F8
:100580008F939F93EF93FF938091C00082FD1CC0D7
:100590002091C6008091CE019091CF014091D00171
:1005A0005091D10101968F7399274817590771F01F
:1005B000E091CE01F091CF01E257FE4F208390935E
:1005C000CF018093CE0102C08091C600FF91EF91D0
:1005D0009F918F915F914F912F910F900FBE0F9030
:1005E0001F9018951F920F920FB60F9211242F9300
:1005F0003F938F939F93AF93BF93809117019091F7
:100600001801A0911901B0911A013091120123E053
:10061000230F2D3720F40196A11DB11D05C026E83A
:10062000230F0296A11DB11D209312018093170183
:1006300090931801A0931901B0931A0180911301AE
:1006400090911401A0911501B09116010196A11D80
:10065000B11D8093130190931401A0931501B093E1
:100660001601BF91AF919F918F913F912F910F9064
:100670000FBE0F901F901895E2EDF1E013821282E9
:1006800088EE93E0A0E0B0E084839583A683B783EF
:1006900084E091E0918380838EE891E09587848760
:1006A0008AE491E09787868785EC90E0918B808B38
:1006B00084EC90E0938B828B80EC90E0958B848B24
:1006C00081EC90E0978B868B82EC90E0918F808F0D
:1006D00086EC90E0938F828F84E0848F83E0858F17
:1006E00087E0868F85E0878F81E080A308957894E6
:1006F00084B5826084BD84B5816084BD85B5826027
:1007000085BD85B5816085BD80916E0081608093D7
:100710006E00109281008091810082608093810040
:100720008091810081608093810080918000816050
:10073000809380008091B10084608093B1008091AB
:10074000B00081608093B00080917A0084608093D3
:100750007A0080917A00826080937A0080917A009A
:10076000816080937A0080917A00806880937A001B
:100770001092C10061E082E00E949A0161E086E08F
:100780000E949A0161E084E00E949A0161E085E0A4
:100790000E949A0161E08AE00E949A0160E08BE089
:1007A0000E949A0161E08CE00E949A0160E08DE075
:1007B0000E949A01E091E601F091E70181E090E06A
:1007C0009C010090F20102C0220F331F0A94E2F74D
:1007D0002083E091E201F091E3011082E091E401D5
:1007E000F091E5012FEC20831092F301E091E801F4
:1007F000F091E90140819C010090EE0102C0220FBE
:10080000331F0A94E2F7242B2083E091E801F09152
:10081000E90140819C010090EF0102C0220F331FCB
:100820000A94E2F7242B2083E091E801F091E9019A
:1008300040819C010090F00102C0220F331F0A94F6
:10084000E2F7242B2083E091E801F091E901208177
:100850000090F10102C0880F991F0A94E2F7809579
:100860008223808301E010E058E9E52E5AE3F52E5B
:1008700068E8C62E63E1D62E70E3A72E75E7B72E83
:1008800060E08AE00E944D0160E08CE00E944D0132
:1008900082ED91E00E941101892B09F45BC04BE2CB
:1008A000842E41E0942EC0E0D0E02FB7F8948091E0
:1008B000170190911801A0911901B0911A012FBF51
:1008C0008093DA019093DB01A093DC01B093DD010A
:1008D00082ED91E00E94D50097FF2BC12FB7F894CD
:1008E0008091170190911801A0911901B0911A01FE
:1008F0002FBF4091DA015091DB016091DC017091D2
:10090000DD01841B950BA60BB70B4091D6015091CE
:10091000D7016091D8017091D90184179507A60776
:10092000B707B0F2C55DDE4F188260E171E08BE27F
:1009300091E00E94C305C5E2D1E0009759F00E9402
:10094000A2058993999360E171E080E090E00E94B4
:10095000C305F3CF8091250190912601009799F46A
:1009600080912701909128018130910529F41092FE
:1009700024011092230114C0892B09F5109324013E
:100980000093230118C00197D1F480912701909121
:1009900028018130910549F490932401809323012B
:1009A00090932201809321010AC0892B41F4109277
:1009B00024011092230110922201109221018091B2
:1009C000290190912A019093200180931F01109298
:1009D0002A011092290190931E0180931D01F0922B
:1009E0001C01E0921B01C0911F01D09120011C1637
:1009F0001D060CF097C08091250190912601813051
:100A0000910529F4B0921C01A0921B0125C0892BED
:100A100019F520911D0130911E01CE018D599F4F76
:100A2000821793073CF080911B0190911C01845622
:100A3000910909C0C436D1055CF480911B019091E5
:100A40001C018C599F4F90931C0180931B0104C083
:100A5000D0921C01C0921B0160E087E00E944D0112
:100A600080911D0190911E01C817D90731F46AEFDA
:100A700070E080E090E00E94FB016091230186E03D
:100A80000E944D016091210185E00E944D0161E0CD
:100A900082E00E944D0161E084E00E944D0180905F
:100AA0001B0190901C0181E0881A910841F0C4015B
:100AB000880F991F880F991F02970197F1F760E03F
:100AC00082E00E944D0160E084E00E944D018114AB
:100AD000910441F0C401880F991F880F991F029754
:100AE0000197F1F72197D0932001C0931F01CD2BDF
:100AF00009F079CF64EF71E080E090E00E94FB01A3
:100B00004AE061E070E080E090E00E9421026DE048
:100B100082ED91E00E9488006AE082ED91E00E94FF
:100B2000880061CF61E087E00E944D010E942101B1
:100B3000A7CEF40181934F012196CF31D10509F061
:100B4000B4CEF0CEFC0188279927E8942191203279
:100B5000E9F3293010F02E30C8F32B3241F02D325A
:100B600039F4689404C00E94EF05820F911D219111
:100B700020532A30C0F31EF4909581959F4F08951D
:100B8000F8940C941F0644EF51E00E94C8050895A4
:100B9000FA01A191B081009719F41097E1F0CD010D
:100BA000DC01CD010D90002011F4C00113C0FB0148
:100BB0002191222319F02015D9F7F3CFFB012191C0
:100BC000201519F41E92119606C02223C1F70D902C
:100BD0000020A1F7D001FA01A193B08308957AE033
:100BE000979F902D879F802D910D11240895A1E24C
:100BF0001A2EAA1BBB1BFD010DC0AA1FBB1FEE1F97
:100C0000FF1FA217B307E407F50720F0A21BB30BE1
:100C1000E40BF50B661F771F881F991F1A9469F75D
:100C200060957095809590959B01AC01BD01CF01B9
:100C30000895EE0FFF1F0590F491E02D0994F894AC
:020C4000FFCFE4
:100C420000000000880025011101D500F500CA004E
:020C52002C0074
:00000001FF
